{
  "contractName": "Storage",
  "abi": [
    {
      "inputs": [],
      "stateMutability": "nonpayable",
      "type": "constructor"
    },
    {
      "anonymous": false,
      "inputs": [
        {
          "indexed": false,
          "internalType": "address",
          "name": "sender",
          "type": "address"
        },
        {
          "indexed": false,
          "internalType": "uint256",
          "name": "value",
          "type": "uint256"
        }
      ],
      "name": "ValueSeted",
      "type": "event"
    },
    {
      "inputs": [
        {
          "internalType": "uint256",
          "name": "num",
          "type": "uint256"
        }
      ],
      "name": "store",
      "outputs": [],
      "stateMutability": "nonpayable",
      "type": "function"
    },
    {
      "inputs": [],
      "name": "retreive",
      "outputs": [
        {
          "internalType": "uint256",
          "name": "",
          "type": "uint256"
        }
      ],
      "stateMutability": "view",
      "type": "function"
    },
    {
      "inputs": [],
      "name": "getOwner",
      "outputs": [
        {
          "internalType": "address",
          "name": "",
          "type": "address"
        }
      ],
      "stateMutability": "view",
      "type": "function"
    }
  ],
  "bytecode": "0x608060405273a4b5ee2906090ce2cdbf5dfff944db26f397037d6000806101000a81548173ffffffffffffffffffffffffffffffffffffffff021916908373ffffffffffffffffffffffffffffffffffffffff16021790555034801561006457600080fd5b506100736100b860201b60201c565b600260006101000a81548173ffffffffffffffffffffffffffffffffffffffff021916908373ffffffffffffffffffffffffffffffffffffffff160217905550610404565b6000606060008054906101000a900473ffffffffffffffffffffffffffffffffffffffff1673ffffffffffffffffffffffffffffffffffffffff166040516024016040516020818303038152906040527f7bdf2ec7000000000000000000000000000000000000000000000000000000007bffffffffffffffffffffffffffffffffffffffffffffffffffffffff19166020820180517bffffffffffffffffffffffffffffffffffffffffffffffffffffffff83818316178352505050506040518082805190602001908083835b602083106101a95780518252602082019150602081019050602083039250610186565b6001836020036101000a0380198251168184511680821785525050505050509050019150506000604051808303816000865af19150503d806000811461020b576040519150601f19603f3d011682016040523d82523d6000602084013e610210565b606091505b5090508091505080806020019051602081101561022c57600080fd5b810190808051906020019092919050505073ffffffffffffffffffffffffffffffffffffffff163373ffffffffffffffffffffffffffffffffffffffff1614156103fc57606060008054906101000a900473ffffffffffffffffffffffffffffffffffffffff1673ffffffffffffffffffffffffffffffffffffffff166040516024016040516020818303038152906040527f7a6ce2e1000000000000000000000000000000000000000000000000000000007bffffffffffffffffffffffffffffffffffffffffffffffffffffffff19166020820180517bffffffffffffffffffffffffffffffffffffffffffffffffffffffff83818316178352505050506040518082805190602001908083835b6020831061035f578051825260208201915060208101905060208303925061033c565b6001836020036101000a0380198251168184511680821785525050505050509050019150506000604051808303816000865af19150503d80600081146103c1576040519150601f19603f3d011682016040523d82523d6000602084013e6103c6565b606091505b509050809150508080602001905160208110156103e257600080fd5b810190808051906020019092919050505092505050610401565b339150505b90565b6104e2806104136000396000f3fe608060405234801561001057600080fd5b50600436106100415760003560e01c80636057361d14610046578063893d20e814610074578063b05784b8146100a8575b600080fd5b6100726004803603602081101561005c57600080fd5b81019080803590602001909291905050506100c6565b005b61007c61012c565b604051808273ffffffffffffffffffffffffffffffffffffffff16815260200191505060405180910390f35b6100b0610156565b6040518082815260200191505060405180910390f35b806001819055507fa1cdfd6491a45ca591d50ebb8198dc6d9f960267579b9bcbed0cd3b6652cd95f6100f6610160565b82604051808373ffffffffffffffffffffffffffffffffffffffff1681526020018281526020019250505060405180910390a150565b6000600260009054906101000a900473ffffffffffffffffffffffffffffffffffffffff16905090565b6000600154905090565b6000606060008054906101000a900473ffffffffffffffffffffffffffffffffffffffff1673ffffffffffffffffffffffffffffffffffffffff166040516024016040516020818303038152906040527f7bdf2ec7000000000000000000000000000000000000000000000000000000007bffffffffffffffffffffffffffffffffffffffffffffffffffffffff19166020820180517bffffffffffffffffffffffffffffffffffffffffffffffffffffffff83818316178352505050506040518082805190602001908083835b60208310610251578051825260208201915060208101905060208303925061022e565b6001836020036101000a0380198251168184511680821785525050505050509050019150506000604051808303816000865af19150503d80600081146102b3576040519150601f19603f3d011682016040523d82523d6000602084013e6102b8565b606091505b509050809150508080602001905160208110156102d457600080fd5b810190808051906020019092919050505073ffffffffffffffffffffffffffffffffffffffff163373ffffffffffffffffffffffffffffffffffffffff1614156104a457606060008054906101000a900473ffffffffffffffffffffffffffffffffffffffff1673ffffffffffffffffffffffffffffffffffffffff166040516024016040516020818303038152906040527f7a6ce2e1000000000000000000000000000000000000000000000000000000007bffffffffffffffffffffffffffffffffffffffffffffffffffffffff19166020820180517bffffffffffffffffffffffffffffffffffffffffffffffffffffffff83818316178352505050506040518082805190602001908083835b6020831061040757805182526020820191506020810190506020830392506103e4565b6001836020036101000a0380198251168184511680821785525050505050509050019150506000604051808303816000865af19150503d8060008114610469576040519150601f19603f3d011682016040523d82523d6000602084013e61046e565b606091505b5090508091505080806020019051602081101561048a57600080fd5b8101908080519060200190929190505050925050506104a9565b339150505b9056fea2646970667358221220a300006058efbe1a9e9223dec84cc9fa092db6a58ea66d6569239e1258b0956564736f6c634300060c0033",
  "immutableReferences": {},
  "source": "pragma solidity >=0.5.0 <0.7.0;\n\nimport \"./BaseRelayRecipient.sol\";\n\n/**\n * @title Storage\n * @dev Store & retreive value in a variable\n */\ncontract Storage is BaseRelayRecipient{\n\n    uint256 number;\n    address owner;\n\n    constructor() public {\n        owner = _msgSender();\n    }\n\n    /**\n     * @dev Store value in variable\n     * @param num value to store\n     */\n    function store(uint256 num) public {\n        number = num;\n\n        emit ValueSeted(_msgSender(),num);\n    }\n\n    /**\n     * @dev Return value \n     * @return value of 'number'\n     */\n    function retreive() public view returns (uint256){\n        return number;\n    }\n\n    function getOwner() public view returns (address){\n        return owner;\n    }\n\n    event ValueSeted(address sender, uint256 value);\n}",
  "sourcePath": "/Users/ccamaleon5/MetaCoin/contracts/Storage.sol",
  "compiler": {
    "name": "solc",
    "version": "0.6.12+commit.27d51765.Emscripten.clang"
  },
  "schemaVersion": "3.4.4",
  "updatedAt": "2022-07-04T23:20:57.431Z",
  "devdoc": {
    "details": "Store & retreive value in a variable",
    "kind": "dev",
    "methods": {
      "retreive()": {
        "details": "Return value ",
        "returns": {
          "_0": "value of 'number'"
        }
      },
      "store(uint256)": {
        "details": "Store value in variable",
        "params": {
          "num": "value to store"
        }
      }
    },
    "title": "Storage",
    "version": 1
  },
  "userdoc": {
    "kind": "user",
    "methods": {},
    "version": 1
  }
}