{
  "contractName": "TxRelay",
  "abi": [
    {
      "inputs": [
        {
          "internalType": "uint16",
          "name": "_blocksFrequency",
          "type": "uint16"
        },
        {
          "internalType": "address",
          "name": "_accountIngress",
          "type": "address"
        }
      ],
      "stateMutability": "nonpayable",
      "type": "constructor"
    },
    {
      "anonymous": false,
      "inputs": [
        {
          "indexed": false,
          "internalType": "address",
          "name": "admin",
          "type": "address"
        },
        {
          "indexed": false,
          "internalType": "address",
          "name": "newAddress",
          "type": "address"
        }
      ],
      "name": "AccountIngressChanged",
      "type": "event"
    },
    {
      "anonymous": false,
      "inputs": [
        {
          "indexed": false,
          "internalType": "address",
          "name": "node",
          "type": "address"
        },
        {
          "indexed": false,
          "internalType": "address",
          "name": "originalSender",
          "type": "address"
        },
        {
          "indexed": false,
          "internalType": "enum IRelayHub.ErrorCode",
          "name": "errorCode",
          "type": "uint8"
        }
      ],
      "name": "BadTransactionSent",
      "type": "event"
    },
    {
      "anonymous": false,
      "inputs": [
        {
          "indexed": false,
          "internalType": "address",
          "name": "admin",
          "type": "address"
        },
        {
          "indexed": false,
          "internalType": "uint256",
          "name": "newBasicGasLimit",
          "type": "uint256"
        }
      ],
      "name": "BasicGasLimitChanged",
      "type": "event"
    },
    {
      "anonymous": false,
      "inputs": [
        {
          "indexed": false,
          "internalType": "address",
          "name": "admin",
          "type": "address"
        },
        {
          "indexed": false,
          "internalType": "uint16",
          "name": "blocksFrequency",
          "type": "uint16"
        }
      ],
      "name": "BlockFrequencyChanged",
      "type": "event"
    },
    {
      "anonymous": false,
      "inputs": [
        {
          "indexed": true,
          "internalType": "address",
          "name": "relay",
          "type": "address"
        },
        {
          "indexed": true,
          "internalType": "address",
          "name": "from",
          "type": "address"
        },
        {
          "indexed": false,
          "internalType": "address",
          "name": "contractDeployed",
          "type": "address"
        }
      ],
      "name": "ContractDeployed",
      "type": "event"
    },
    {
      "anonymous": false,
      "inputs": [
        {
          "indexed": false,
          "internalType": "address",
          "name": "node",
          "type": "address"
        },
        {
          "indexed": false,
          "internalType": "uint256",
          "name": "blockNumber",
          "type": "uint256"
        },
        {
          "indexed": false,
          "internalType": "uint8",
          "name": "countExceeded",
          "type": "uint8"
        }
      ],
      "name": "GasLimitExceeded",
      "type": "event"
    },
    {
      "anonymous": false,
      "inputs": [
        {
          "indexed": false,
          "internalType": "uint256",
          "name": "blockNumber",
          "type": "uint256"
        },
        {
          "indexed": false,
          "internalType": "uint256",
          "name": "gasUsedLastBlocks",
          "type": "uint256"
        },
        {
          "indexed": false,
          "internalType": "uint256",
          "name": "averageLastBlocks",
          "type": "uint256"
        },
        {
          "indexed": false,
          "internalType": "uint256",
          "name": "newGasLimit",
          "type": "uint256"
        }
      ],
      "name": "GasLimitSet",
      "type": "event"
    },
    {
      "anonymous": false,
      "inputs": [
        {
          "indexed": false,
          "internalType": "address",
          "name": "node",
          "type": "address"
        },
        {
          "indexed": false,
          "internalType": "uint256",
          "name": "blockNumber",
          "type": "uint256"
        },
        {
          "indexed": false,
          "internalType": "uint256",
          "name": "gasUsed",
          "type": "uint256"
        },
        {
          "indexed": false,
          "internalType": "uint256",
          "name": "gasLimit",
          "type": "uint256"
        },
        {
          "indexed": false,
          "internalType": "uint256",
          "name": "gasUsedLastBlocks",
          "type": "uint256"
        }
      ],
      "name": "GasUsedByTransaction",
      "type": "event"
    },
    {
      "anonymous": false,
      "inputs": [
        {
          "indexed": false,
          "internalType": "address",
          "name": "admin",
          "type": "address"
        },
        {
          "indexed": false,
          "internalType": "uint256",
          "name": "gasUsedRelayHub",
          "type": "uint256"
        }
      ],
      "name": "GasUsedRelayHubChanged",
      "type": "event"
    },
    {
      "anonymous": false,
      "inputs": [
        {
          "indexed": false,
          "internalType": "uint256",
          "name": "blockNumber",
          "type": "uint256"
        },
        {
          "indexed": false,
          "internalType": "address",
          "name": "admin",
          "type": "address"
        },
        {
          "indexed": false,
          "internalType": "uint256",
          "name": "maxGasBlockLimit",
          "type": "uint256"
        }
      ],
      "name": "MaxGasBlockLimitChanged",
      "type": "event"
    },
    {
      "anonymous": false,
      "inputs": [
        {
          "indexed": false,
          "internalType": "address",
          "name": "newNode",
          "type": "address"
        }
      ],
      "name": "NodeAdded",
      "type": "event"
    },
    {
      "anonymous": false,
      "inputs": [
        {
          "indexed": false,
          "internalType": "address",
          "name": "node",
          "type": "address"
        },
        {
          "indexed": false,
          "internalType": "uint256",
          "name": "blockNumber",
          "type": "uint256"
        }
      ],
      "name": "NodeBlocked",
      "type": "event"
    },
    {
      "anonymous": false,
      "inputs": [
        {
          "indexed": false,
          "internalType": "address",
          "name": "oldNode",
          "type": "address"
        }
      ],
      "name": "NodeDeleted",
      "type": "event"
    },
    {
      "anonymous": false,
      "inputs": [
        {
          "indexed": false,
          "internalType": "bool",
          "name": "result",
          "type": "bool"
        }
      ],
      "name": "Recalculated",
      "type": "event"
    },
    {
      "anonymous": false,
      "inputs": [
        {
          "indexed": true,
          "internalType": "address",
          "name": "sender",
          "type": "address"
        },
        {
          "indexed": true,
          "internalType": "address",
          "name": "from",
          "type": "address"
        }
      ],
      "name": "Relayed",
      "type": "event"
    },
    {
      "anonymous": false,
      "inputs": [
        {
          "indexed": true,
          "internalType": "bytes32",
          "name": "role",
          "type": "bytes32"
        },
        {
          "indexed": true,
          "internalType": "bytes32",
          "name": "previousAdminRole",
          "type": "bytes32"
        },
        {
          "indexed": true,
          "internalType": "bytes32",
          "name": "newAdminRole",
          "type": "bytes32"
        }
      ],
      "name": "RoleAdminChanged",
      "type": "event"
    },
    {
      "anonymous": false,
      "inputs": [
        {
          "indexed": true,
          "internalType": "bytes32",
          "name": "role",
          "type": "bytes32"
        },
        {
          "indexed": true,
          "internalType": "address",
          "name": "account",
          "type": "address"
        },
        {
          "indexed": true,
          "internalType": "address",
          "name": "sender",
          "type": "address"
        }
      ],
      "name": "RoleGranted",
      "type": "event"
    },
    {
      "anonymous": false,
      "inputs": [
        {
          "indexed": true,
          "internalType": "bytes32",
          "name": "role",
          "type": "bytes32"
        },
        {
          "indexed": true,
          "internalType": "address",
          "name": "account",
          "type": "address"
        },
        {
          "indexed": true,
          "internalType": "address",
          "name": "sender",
          "type": "address"
        }
      ],
      "name": "RoleRevoked",
      "type": "event"
    },
    {
      "anonymous": false,
      "inputs": [
        {
          "indexed": false,
          "internalType": "address",
          "name": "admin",
          "type": "address"
        },
        {
          "indexed": false,
          "internalType": "uint256",
          "name": "newStandardGasLimit",
          "type": "uint256"
        }
      ],
      "name": "StandardGasLimitChanged",
      "type": "event"
    },
    {
      "anonymous": false,
      "inputs": [
        {
          "indexed": true,
          "internalType": "address",
          "name": "relay",
          "type": "address"
        },
        {
          "indexed": true,
          "internalType": "address",
          "name": "from",
          "type": "address"
        },
        {
          "indexed": true,
          "internalType": "address",
          "name": "to",
          "type": "address"
        },
        {
          "indexed": false,
          "internalType": "bool",
          "name": "executed",
          "type": "bool"
        },
        {
          "indexed": false,
          "internalType": "bytes",
          "name": "output",
          "type": "bytes"
        }
      ],
      "name": "TransactionRelayed",
      "type": "event"
    },
    {
      "inputs": [],
      "name": "DEFAULT_ADMIN_ROLE",
      "outputs": [
        {
          "internalType": "bytes32",
          "name": "",
          "type": "bytes32"
        }
      ],
      "stateMutability": "view",
      "type": "function",
      "constant": true
    },
    {
      "inputs": [
        {
          "internalType": "address",
          "name": "newNode",
          "type": "address"
        },
        {
          "internalType": "uint8",
          "name": "nodeType",
          "type": "uint8"
        }
      ],
      "name": "addNode",
      "outputs": [
        {
          "internalType": "bool",
          "name": "",
          "type": "bool"
        }
      ],
      "stateMutability": "nonpayable",
      "type": "function"
    },
    {
      "inputs": [
        {
          "internalType": "address",
          "name": "node",
          "type": "address"
        }
      ],
      "name": "deleteNode",
      "outputs": [],
      "stateMutability": "nonpayable",
      "type": "function"
    },
    {
      "inputs": [],
      "name": "getCurrentGasLimit",
      "outputs": [
        {
          "internalType": "uint256",
          "name": "",
          "type": "uint256"
        }
      ],
      "stateMutability": "view",
      "type": "function",
      "constant": true
    },
    {
      "inputs": [],
      "name": "getGasLimit",
      "outputs": [
        {
          "internalType": "uint256",
          "name": "",
          "type": "uint256"
        }
      ],
      "stateMutability": "view",
      "type": "function",
      "constant": true
    },
    {
      "inputs": [],
      "name": "getGasUsedLastBlocks",
      "outputs": [
        {
          "internalType": "uint256",
          "name": "",
          "type": "uint256"
        }
      ],
      "stateMutability": "view",
      "type": "function",
      "constant": true
    },
    {
      "inputs": [],
      "name": "getMaxGasBlockLimit",
      "outputs": [
        {
          "internalType": "uint256",
          "name": "",
          "type": "uint256"
        }
      ],
      "stateMutability": "view",
      "type": "function",
      "constant": true
    },
    {
      "inputs": [],
      "name": "getNodes",
      "outputs": [
        {
          "internalType": "uint256",
          "name": "",
          "type": "uint256"
        }
      ],
      "stateMutability": "view",
      "type": "function",
      "constant": true
    },
    {
      "inputs": [
        {
          "internalType": "bytes32",
          "name": "role",
          "type": "bytes32"
        }
      ],
      "name": "getRoleAdmin",
      "outputs": [
        {
          "internalType": "bytes32",
          "name": "",
          "type": "bytes32"
        }
      ],
      "stateMutability": "view",
      "type": "function",
      "constant": true
    },
    {
      "inputs": [
        {
          "internalType": "bytes32",
          "name": "role",
          "type": "bytes32"
        },
        {
          "internalType": "uint256",
          "name": "index",
          "type": "uint256"
        }
      ],
      "name": "getRoleMember",
      "outputs": [
        {
          "internalType": "address",
          "name": "",
          "type": "address"
        }
      ],
      "stateMutability": "view",
      "type": "function",
      "constant": true
    },
    {
      "inputs": [
        {
          "internalType": "bytes32",
          "name": "role",
          "type": "bytes32"
        }
      ],
      "name": "getRoleMemberCount",
      "outputs": [
        {
          "internalType": "uint256",
          "name": "",
          "type": "uint256"
        }
      ],
      "stateMutability": "view",
      "type": "function",
      "constant": true
    },
    {
      "inputs": [
        {
          "internalType": "bytes32",
          "name": "role",
          "type": "bytes32"
        },
        {
          "internalType": "address",
          "name": "account",
          "type": "address"
        }
      ],
      "name": "grantRole",
      "outputs": [],
      "stateMutability": "nonpayable",
      "type": "function"
    },
    {
      "inputs": [
        {
          "internalType": "bytes32",
          "name": "role",
          "type": "bytes32"
        },
        {
          "internalType": "address",
          "name": "account",
          "type": "address"
        }
      ],
      "name": "hasRole",
      "outputs": [
        {
          "internalType": "bool",
          "name": "",
          "type": "bool"
        }
      ],
      "stateMutability": "view",
      "type": "function",
      "constant": true
    },
    {
      "inputs": [
        {
          "internalType": "bytes32",
          "name": "role",
          "type": "bytes32"
        },
        {
          "internalType": "address",
          "name": "account",
          "type": "address"
        }
      ],
      "name": "renounceRole",
      "outputs": [],
      "stateMutability": "nonpayable",
      "type": "function"
    },
    {
      "inputs": [
        {
          "internalType": "bytes32",
          "name": "role",
          "type": "bytes32"
        },
        {
          "internalType": "address",
          "name": "account",
          "type": "address"
        }
      ],
      "name": "revokeRole",
      "outputs": [],
      "stateMutability": "nonpayable",
      "type": "function"
    },
    {
      "inputs": [
        {
          "internalType": "address",
          "name": "_accountIngress",
          "type": "address"
        }
      ],
      "name": "setAccounIngress",
      "outputs": [],
      "stateMutability": "nonpayable",
      "type": "function"
    },
    {
      "inputs": [
        {
          "internalType": "uint256",
          "name": "_basicGasLimit",
          "type": "uint256"
        }
      ],
      "name": "setBasicGasLimit",
      "outputs": [],
      "stateMutability": "nonpayable",
      "type": "function"
    },
    {
      "inputs": [
        {
          "internalType": "uint8",
          "name": "_blocksFrequency",
          "type": "uint8"
        }
      ],
      "name": "setBlocksFrequency",
      "outputs": [],
      "stateMutability": "nonpayable",
      "type": "function"
    },
    {
      "inputs": [
        {
          "internalType": "uint256",
          "name": "newGasUsed",
          "type": "uint256"
        }
      ],
      "name": "setGasUsedLastBlocks",
      "outputs": [],
      "stateMutability": "nonpayable",
      "type": "function"
    },
    {
      "inputs": [
        {
          "internalType": "uint256",
          "name": "_gasUsedRelayHub",
          "type": "uint256"
        }
      ],
      "name": "setGasUsedRelayHub",
      "outputs": [],
      "stateMutability": "nonpayable",
      "type": "function"
    },
    {
      "inputs": [
        {
          "internalType": "uint256",
          "name": "_maxGasBlockLimit",
          "type": "uint256"
        }
      ],
      "name": "setMaxGasBlockLimit",
      "outputs": [],
      "stateMutability": "nonpayable",
      "type": "function"
    },
    {
      "inputs": [
        {
          "internalType": "uint256",
          "name": "_standardGasLimit",
          "type": "uint256"
        }
      ],
      "name": "setStandardGasLimit",
      "outputs": [],
      "stateMutability": "nonpayable",
      "type": "function"
    },
    {
      "inputs": [
        {
          "internalType": "uint256",
          "name": "gasLimit",
          "type": "uint256"
        },
        {
          "internalType": "bytes",
          "name": "signingData",
          "type": "bytes"
        },
        {
          "internalType": "uint8",
          "name": "v",
          "type": "uint8"
        },
        {
          "internalType": "bytes32",
          "name": "r",
          "type": "bytes32"
        },
        {
          "internalType": "bytes32",
          "name": "s",
          "type": "bytes32"
        }
      ],
      "name": "relayMetaTx",
      "outputs": [
        {
          "internalType": "enum IRelayHub.ErrorCode",
          "name": "success",
          "type": "uint8"
        }
      ],
      "stateMutability": "nonpayable",
      "type": "function"
    },
    {
      "inputs": [
        {
          "internalType": "uint256",
          "name": "gasLimit",
          "type": "uint256"
        },
        {
          "internalType": "bytes",
          "name": "signingData",
          "type": "bytes"
        },
        {
          "internalType": "uint8",
          "name": "v",
          "type": "uint8"
        },
        {
          "internalType": "bytes32",
          "name": "r",
          "type": "bytes32"
        },
        {
          "internalType": "bytes32",
          "name": "s",
          "type": "bytes32"
        }
      ],
      "name": "deployMetaTx",
      "outputs": [
        {
          "internalType": "enum IRelayHub.ErrorCode",
          "name": "success",
          "type": "uint8"
        },
        {
          "internalType": "address",
          "name": "deployedAddress",
          "type": "address"
        }
      ],
      "stateMutability": "nonpayable",
      "type": "function"
    },
    {
      "inputs": [
        {
          "internalType": "address",
          "name": "from",
          "type": "address"
        }
      ],
      "name": "getNonce",
      "outputs": [
        {
          "internalType": "uint256",
          "name": "",
          "type": "uint256"
        }
      ],
      "stateMutability": "view",
      "type": "function",
      "constant": true
    },
    {
      "inputs": [],
      "name": "getMsgSender",
      "outputs": [
        {
          "internalType": "address",
          "name": "",
          "type": "address"
        }
      ],
      "stateMutability": "view",
      "type": "function",
      "constant": true
    },
    {
      "inputs": [
        {
          "internalType": "uint256",
          "name": "gasUsed",
          "type": "uint256"
        }
      ],
      "name": "increaseGasUsed",
      "outputs": [
        {
          "internalType": "bool",
          "name": "",
          "type": "bool"
        }
      ],
      "stateMutability": "nonpayable",
      "type": "function"
    }
  ],
  "bytecode": "0x60806040526307270e00600255620493e06003556207a120600455620f42406005553480156200002e57600080fd5b50604051620057ff380380620057ff833981810160405281019062000054919062000347565b818160016000819055506002546009819055504360088190555043600f8190555081601060006101000a81548161ffff021916908361ffff16021790555080601060036101000a81548173ffffffffffffffffffffffffffffffffffffffff021916908373ffffffffffffffffffffffffffffffffffffffff160217905550620000e86000801b336200010760201b60201c565b5050620000ff6000801b336200010760201b60201c565b50506200038e565b6200011982826200011d60201b60201c565b5050565b6200014c8160016000858152602001908152602001600020600001620001c160201b620029511790919060201c565b15620001bd5762000162620001f960201b60201c565b73ffffffffffffffffffffffffffffffffffffffff168173ffffffffffffffffffffffffffffffffffffffff16837f2f8788117e7eff1d82e926ec794901d17c78024a50270940304540a733656f0d60405160405180910390a45b5050565b6000620001f1836000018373ffffffffffffffffffffffffffffffffffffffff1660001b6200020160201b60201c565b905092915050565b600033905090565b60006200021583836200027b60201b60201c565b6200027057826000018290806001815401808255809150506001900390600052602060002001600090919091909150558260000180549050836001016000848152602001908152602001600020819055506001905062000275565b600090505b92915050565b600080836001016000848152602001908152602001600020541415905092915050565b600080fd5b600061ffff82169050919050565b620002bc81620002a3565b8114620002c857600080fd5b50565b600081519050620002dc81620002b1565b92915050565b600073ffffffffffffffffffffffffffffffffffffffff82169050919050565b60006200030f82620002e2565b9050919050565b620003218162000302565b81146200032d57600080fd5b50565b600081519050620003418162000316565b92915050565b600080604083850312156200036157620003606200029e565b5b60006200037185828601620002cb565b9250506020620003848582860162000330565b9150509250929050565b615461806200039e6000396000f3fe608060405234801561001057600080fd5b50600436106101a95760003560e01c80634473d59d116100f9578063b629269511610097578063d03ce2db11610071578063d03ce2db146104ef578063d547741f1461050d578063d65cd01014610529578063e29581aa14610547576101a9565b8063b629269514610473578063c98f8d98146104a3578063ca15c873146104bf576101a9565b80637ca90fb3116100d35780637ca90fb3146103d75780639010d07c146103f557806391d1485414610425578063a217fddf14610455576101a9565b80634473d59d1461038157806378beb3e71461039d5780637a6ce2e1146103b9576101a9565b80632d0335ab116101665780632f2ff15d116101405780632f2ff15d146102fc57806330d0f2d11461031857806336568abe146103345780633ef54cef14610350576101a9565b80632d0335ab146102805780632d4ede93146102b05780632e74335a146102cc576101a9565b80631416862c146101ae5780631a93d1c3146101de5780631aa4de53146101fc578063248a9ca3146102185780632817769e146102485780632a45d59914610264575b600080fd5b6101c860048036038101906101c391906144ea565b610565565b6040516101d591906145f8565b60405180910390f35b6101e6610b2f565b6040516101f39190614622565b60405180910390f35b6102166004803603810190610211919061463d565b610bbe565b005b610232600480360381019061022d919061466a565b610c14565b60405161023f91906146a6565b60405180910390f35b610262600480360381019061025d919061463d565b610c34565b005b61027e6004803603810190610279919061463d565b610f53565b005b61029a6004803603810190610295919061471f565b610fe6565b6040516102a79190614622565b60405180910390f35b6102ca60048036038101906102c5919061471f565b61106c565b005b6102e660048036038101906102e1919061463d565b6113b2565b6040516102f39190614767565b60405180910390f35b61031660048036038101906103119190614782565b6116ba565b005b610332600480360381019061032d919061463d565b61172e565b005b61034e60048036038101906103499190614782565b611a4d565b005b61036a600480360381019061036591906144ea565b611ad0565b6040516103789291906147d1565b60405180910390f35b61039b6004803603810190610396919061471f565b612089565b005b6103b760048036038101906103b2919061463d565b612174565b005b6103c1612205565b6040516103ce91906147fa565b60405180910390f35b6103df61222f565b6040516103ec9190614622565b60405180910390f35b61040f600480360381019061040a9190614815565b612239565b60405161041c91906147fa565b60405180910390f35b61043f600480360381019061043a9190614782565b61226b565b60405161044c9190614767565b60405180910390f35b61045d61229d565b60405161046a91906146a6565b60405180910390f35b61048d60048036038101906104889190614855565b6122a4565b60405161049a9190614767565b60405180910390f35b6104bd60048036038101906104b89190614895565b61254f565b005b6104d960048036038101906104d4919061466a565b612895565b6040516104e69190614622565b60405180910390f35b6104f76128bc565b6040516105049190614622565b60405180910390f35b61052760048036038101906105229190614782565b6128c6565b005b61053161293a565b60405161053e9190614622565b60405180910390f35b61054f612944565b60405161055c9190614622565b60405180910390f35b6000600260005414156105ad576040517f08c379a00000000000000000000000000000000000000000000000000000000081526004016105a49061491f565b60405180910390fd5b6002600081905550601260003373ffffffffffffffffffffffffffffffffffffffff1673ffffffffffffffffffffffffffffffffffffffff168152602001908152602001600020544311156107cf5743601260003373ffffffffffffffffffffffffffffffffffffffff1673ffffffffffffffffffffffffffffffffffffffff168152602001908152602001600020819055506001600c60003373ffffffffffffffffffffffffffffffffffffffff1673ffffffffffffffffffffffffffffffffffffffff16815260200190815260200160002060009054906101000a900460ff1660ff1614156106e357600454600a60003373ffffffffffffffffffffffffffffffffffffffff1673ffffffffffffffffffffffffffffffffffffffff168152602001908152602001600020819055506107ce565b6002600c60003373ffffffffffffffffffffffffffffffffffffffff1673ffffffffffffffffffffffffffffffffffffffff16815260200190815260200160002060009054906101000a900460ff1660ff16141561078657600554600a60003373ffffffffffffffffffffffffffffffffffffffff1673ffffffffffffffffffffffffffffffffffffffff168152602001908152602001600020819055506107cd565b600954600a60003373ffffffffffffffffffffffffffffffffffffffff1673ffffffffffffffffffffffffffffffffffffffff168152602001908152602001600020819055505b5b5b6000600780549050111561084357601060029054906101000a900460ff16806107fc57506107fb612981565b5b15610842577fa37b1b27143f61d990cfcf145e7f5d21c4419700613094ab29654b7ac6c0872460016040516108319190614767565b60405180910390a1610841612adf565b5b5b600080610854878787876000612c8a565b9150915060088081111561086b5761086a614581565b5b82600881111561087e5761087d614581565b5b146108fc576108a461195e5a8a610895919061496e565b61089f91906149a2565b612f8d565b6108b357600392505050610b1e565b7fc62bb53370aadcfe652881fc57ef9ca04a7c473e83b963413f2cf2b5d66c3ef3338260000151846040516108ea939291906149f8565b60405180910390a18192505050610b1e565b6109098160600151612fff565b15610aa6578060000151601460006101000a81548173ffffffffffffffffffffffffffffffffffffffff021916908373ffffffffffffffffffffffffffffffffffffffff1602179055506188b8816040015161096591906149a2565b5a1115610a265760008061099583606001516000610258866040015161098b91906149a2565b8660800151613018565b91509150826060015173ffffffffffffffffffffffffffffffffffffffff16836000015173ffffffffffffffffffffffffffffffffffffffff163373ffffffffffffffffffffffffffffffffffffffff167f548af85d7bc344f47cbfacdfce1ffea1ecd862e5e235ca9ec919e767c14049a88585604051610a17929190614ab7565b60405180910390a45050610aa1565b7fc62bb53370aadcfe652881fc57ef9ca04a7c473e83b963413f2cf2b5d66c3ef33382600001516003604051610a5e939291906149f8565b60405180910390a1610a8761195e5a8a610a78919061496e565b610a8291906149a2565b612f8d565b610a9657600392505050610b1e565b600392505050610b1e565b610ae7565b7fc62bb53370aadcfe652881fc57ef9ca04a7c473e83b963413f2cf2b5d66c3ef33382600001516004604051610ade939291906149f8565b60405180910390a15b610b0861195e5a8a610af9919061496e565b610b0391906149a2565b612f8d565b610b1757600392505050610b1e565b6008925050505b600160008190555095945050505050565b6000610b3a33613098565b610b79576040517f08c379a0000000000000000000000000000000000000000000000000000000008152600401610b7090614b33565b60405180910390fd5b600a60003373ffffffffffffffffffffffffffffffffffffffff1673ffffffffffffffffffffffffffffffffffffffff16815260200190815260200160002054905090565b610bcb6000801b3361226b565b610c0a576040517f08c379a0000000000000000000000000000000000000000000000000000000008152600401610c0190614b9f565b60405180910390fd5b80600d8190555050565b600060016000838152602001908152602001600020600201549050919050565b610c416000801b3361226b565b610c80576040517f08c379a0000000000000000000000000000000000000000000000000000000008152600401610c7790614b9f565b60405180910390fd5b601260003373ffffffffffffffffffffffffffffffffffffffff1673ffffffffffffffffffffffffffffffffffffffff16815260200190815260200160002054431115610e9a5743601260003373ffffffffffffffffffffffffffffffffffffffff1673ffffffffffffffffffffffffffffffffffffffff168152602001908152602001600020819055506001600c60003373ffffffffffffffffffffffffffffffffffffffff1673ffffffffffffffffffffffffffffffffffffffff16815260200190815260200160002060009054906101000a900460ff1660ff161415610dae57600454600a60003373ffffffffffffffffffffffffffffffffffffffff1673ffffffffffffffffffffffffffffffffffffffff16815260200190815260200160002081905550610e99565b6002600c60003373ffffffffffffffffffffffffffffffffffffffff1673ffffffffffffffffffffffffffffffffffffffff16815260200190815260200160002060009054906101000a900460ff1660ff161415610e5157600554600a60003373ffffffffffffffffffffffffffffffffffffffff1673ffffffffffffffffffffffffffffffffffffffff16815260200190815260200160002081905550610e98565b600954600a60003373ffffffffffffffffffffffffffffffffffffffff1673ffffffffffffffffffffffffffffffffffffffff168152602001908152602001600020819055505b5b5b60006007805490501115610f0e57601060029054906101000a900460ff1680610ec75750610ec6612981565b5b15610f0d577fa37b1b27143f61d990cfcf145e7f5d21c4419700613094ab29654b7ac6c087246001604051610efc9190614767565b60405180910390a1610f0c612adf565b5b5b806004819055507f1de8c1816534316d8230507e43f455b1664cdd24404b14e4e6bfbee11767520733600454604051610f48929190614bbf565b60405180910390a150565b610f606000801b3361226b565b610f9f576040517f08c379a0000000000000000000000000000000000000000000000000000000008152600401610f9690614b9f565b60405180910390fd5b806002819055507f2eda5665530e0f918783d2a5e33519c436ef2275f0960978c0a3b9258483339b4333600254604051610fdb93929190614be8565b60405180910390a150565b6000601360003373ffffffffffffffffffffffffffffffffffffffff1673ffffffffffffffffffffffffffffffffffffffff16815260200190815260200160002060008373ffffffffffffffffffffffffffffffffffffffff1673ffffffffffffffffffffffffffffffffffffffff168152602001908152602001600020549050919050565b601060039054906101000a900473ffffffffffffffffffffffffffffffffffffffff1673ffffffffffffffffffffffffffffffffffffffff163373ffffffffffffffffffffffffffffffffffffffff16146110fc576040517f08c379a00000000000000000000000000000000000000000000000000000000081526004016110f390614c6b565b60405180910390fd5b6000600b60008373ffffffffffffffffffffffffffffffffffffffff1673ffffffffffffffffffffffffffffffffffffffff16815260200190815260200160002054905060008111611183576040517f08c379a000000000000000000000000000000000000000000000000000000000815260040161117a90614cd7565b60405180910390fd5b60068054905081111561119657506113af565b6000600660016006805490506111ac919061496e565b815481106111bd576111bc614cf7565b5b9060005260206000200160009054906101000a900473ffffffffffffffffffffffffffffffffffffffff1690508060066001846111fa919061496e565b8154811061120b5761120a614cf7565b5b9060005260206000200160006101000a81548173ffffffffffffffffffffffffffffffffffffffff021916908373ffffffffffffffffffffffffffffffffffffffff16021790555081600b60008373ffffffffffffffffffffffffffffffffffffffff1673ffffffffffffffffffffffffffffffffffffffff168152602001908152602001600020819055506000600b60008573ffffffffffffffffffffffffffffffffffffffff1673ffffffffffffffffffffffffffffffffffffffff16815260200190815260200160002081905550600660016006805490506112f0919061496e565b8154811061130157611300614cf7565b5b9060005260206000200160006101000a81549073ffffffffffffffffffffffffffffffffffffffff021916905560068054806113405761133f614d26565b5b6001900381819060005260206000200160006101000a81549073ffffffffffffffffffffffffffffffffffffffff021916905590557f1629bfc36423a1b4749d3fe1d6970b9d32d42bbee47dd5540670696ab6b9a4ad836040516113a491906147fa565b60405180910390a150505b50565b6000600260005414156113fa576040517f08c379a00000000000000000000000000000000000000000000000000000000081526004016113f19061491f565b60405180910390fd5b6002600081905550601260003373ffffffffffffffffffffffffffffffffffffffff1673ffffffffffffffffffffffffffffffffffffffff1681526020019081526020016000205443111561161c5743601260003373ffffffffffffffffffffffffffffffffffffffff1673ffffffffffffffffffffffffffffffffffffffff168152602001908152602001600020819055506001600c60003373ffffffffffffffffffffffffffffffffffffffff1673ffffffffffffffffffffffffffffffffffffffff16815260200190815260200160002060009054906101000a900460ff1660ff16141561153057600454600a60003373ffffffffffffffffffffffffffffffffffffffff1673ffffffffffffffffffffffffffffffffffffffff1681526020019081526020016000208190555061161b565b6002600c60003373ffffffffffffffffffffffffffffffffffffffff1673ffffffffffffffffffffffffffffffffffffffff16815260200190815260200160002060009054906101000a900460ff1660ff1614156115d357600554600a60003373ffffffffffffffffffffffffffffffffffffffff1673ffffffffffffffffffffffffffffffffffffffff1681526020019081526020016000208190555061161a565b600954600a60003373ffffffffffffffffffffffffffffffffffffffff1673ffffffffffffffffffffffffffffffffffffffff168152602001908152602001600020819055505b5b5b6000600780549050111561169057601060029054906101000a900460ff16806116495750611648612981565b5b1561168f577fa37b1b27143f61d990cfcf145e7f5d21c4419700613094ab29654b7ac6c08724600160405161167e9190614767565b60405180910390a161168e612adf565b5b5b61169933613098565b6116a257600080fd5b6116ab82612f8d565b90506001600081905550919050565b6116e160016000848152602001908152602001600020600201546116dc6130e4565b61226b565b611720576040517f08c379a000000000000000000000000000000000000000000000000000000000815260040161171790614dc7565b60405180910390fd5b61172a82826130ec565b5050565b61173b6000801b3361226b565b61177a576040517f08c379a000000000000000000000000000000000000000000000000000000000815260040161177190614b9f565b60405180910390fd5b601260003373ffffffffffffffffffffffffffffffffffffffff1673ffffffffffffffffffffffffffffffffffffffff168152602001908152602001600020544311156119945743601260003373ffffffffffffffffffffffffffffffffffffffff1673ffffffffffffffffffffffffffffffffffffffff168152602001908152602001600020819055506001600c60003373ffffffffffffffffffffffffffffffffffffffff1673ffffffffffffffffffffffffffffffffffffffff16815260200190815260200160002060009054906101000a900460ff1660ff1614156118a857600454600a60003373ffffffffffffffffffffffffffffffffffffffff1673ffffffffffffffffffffffffffffffffffffffff16815260200190815260200160002081905550611993565b6002600c60003373ffffffffffffffffffffffffffffffffffffffff1673ffffffffffffffffffffffffffffffffffffffff16815260200190815260200160002060009054906101000a900460ff1660ff16141561194b57600554600a60003373ffffffffffffffffffffffffffffffffffffffff1673ffffffffffffffffffffffffffffffffffffffff16815260200190815260200160002081905550611992565b600954600a60003373ffffffffffffffffffffffffffffffffffffffff1673ffffffffffffffffffffffffffffffffffffffff168152602001908152602001600020819055505b5b5b60006007805490501115611a0857601060029054906101000a900460ff16806119c157506119c0612981565b5b15611a07577fa37b1b27143f61d990cfcf145e7f5d21c4419700613094ab29654b7ac6c0872460016040516119f69190614767565b60405180910390a1611a06612adf565b5b5b806005819055507f0504e193ea2e2bca0e2deeaaa2112e5c03f4d219cadf158af2dcbbcfae5d70e833600554604051611a42929190614bbf565b60405180910390a150565b611a556130e4565b73ffffffffffffffffffffffffffffffffffffffff168173ffffffffffffffffffffffffffffffffffffffff1614611ac2576040517f08c379a0000000000000000000000000000000000000000000000000000000008152600401611ab990614e59565b60405180910390fd5b611acc8282613180565b5050565b60008060026000541415611b19576040517f08c379a0000000000000000000000000000000000000000000000000000000008152600401611b109061491f565b60405180910390fd5b6002600081905550601260003373ffffffffffffffffffffffffffffffffffffffff1673ffffffffffffffffffffffffffffffffffffffff16815260200190815260200160002054431115611d3b5743601260003373ffffffffffffffffffffffffffffffffffffffff1673ffffffffffffffffffffffffffffffffffffffff168152602001908152602001600020819055506001600c60003373ffffffffffffffffffffffffffffffffffffffff1673ffffffffffffffffffffffffffffffffffffffff16815260200190815260200160002060009054906101000a900460ff1660ff161415611c4f57600454600a60003373ffffffffffffffffffffffffffffffffffffffff1673ffffffffffffffffffffffffffffffffffffffff16815260200190815260200160002081905550611d3a565b6002600c60003373ffffffffffffffffffffffffffffffffffffffff1673ffffffffffffffffffffffffffffffffffffffff16815260200190815260200160002060009054906101000a900460ff1660ff161415611cf257600554600a60003373ffffffffffffffffffffffffffffffffffffffff1673ffffffffffffffffffffffffffffffffffffffff16815260200190815260200160002081905550611d39565b600954600a60003373ffffffffffffffffffffffffffffffffffffffff1673ffffffffffffffffffffffffffffffffffffffff168152602001908152602001600020819055505b5b5b60006007805490501115611daf57601060029054906101000a900460ff1680611d685750611d67612981565b5b15611dae577fa37b1b27143f61d990cfcf145e7f5d21c4419700613094ab29654b7ac6c087246001604051611d9d9190614767565b60405180910390a1611dad612adf565b5b5b600080611dc0888888886001612c8a565b91509150600880811115611dd757611dd6614581565b5b826008811115611dea57611de9614581565b5b14611e70577fc62bb53370aadcfe652881fc57ef9ca04a7c473e83b963413f2cf2b5d66c3ef333826000015184604051611e26939291906149f8565b60405180910390a1611e4f61195e5a8b611e40919061496e565b611e4a91906149a2565b612f8d565b611e625760036000935093505050612077565b816000935093505050612077565b60008160800151511115611ffb578060000151601460006101000a81548173ffffffffffffffffffffffffffffffffffffffff021916908373ffffffffffffffffffffffffffffffffffffffff160217905550620111708160400151611ed691906149a2565b5a1115611f7357600080611eef60008460800151613214565b9150915080945060008260ff161115611f6c57826000015173ffffffffffffffffffffffffffffffffffffffff163373ffffffffffffffffffffffffffffffffffffffff167f8a14d1d7200360982eafa429b53edf408f7f589e6da6558f3c116c7f708327b387604051611f6391906147fa565b60405180910390a35b5050611ff6565b7fc62bb53370aadcfe652881fc57ef9ca04a7c473e83b963413f2cf2b5d66c3ef33382600001516003604051611fab939291906149f8565b60405180910390a1611fd461195e5a8b611fc5919061496e565b611fcf91906149a2565b612f8d565b611fe75760036000935093505050612077565b60036000935093505050612077565b61203c565b7fc62bb53370aadcfe652881fc57ef9ca04a7c473e83b963413f2cf2b5d66c3ef33382600001516005604051612033939291906149f8565b60405180910390a15b61205d61195e5a8b61204e919061496e565b61205891906149a2565b612f8d565b6120705760036000935093505050612077565b6008935050505b60016000819055509550959350505050565b6120966000801b3361226b565b6120d5576040517f08c379a00000000000000000000000000000000000000000000000000000000081526004016120cc90614b9f565b60405180910390fd5b80601060036101000a81548173ffffffffffffffffffffffffffffffffffffffff021916908373ffffffffffffffffffffffffffffffffffffffff1602179055507ff552f6d1d0f097137db64c11c170afb61be6d9a123c50c5fc38c5b1f56a205f333601060039054906101000a900473ffffffffffffffffffffffffffffffffffffffff16604051612169929190614e79565b60405180910390a150565b6121816000801b3361226b565b6121c0576040517f08c379a00000000000000000000000000000000000000000000000000000000081526004016121b790614b9f565b60405180910390fd5b806003819055507f3813cab05b71ba7f1b896b5c81bc102fb1329cb18c002d93301454621f6e2dd6336003546040516121fa929190614bbf565b60405180910390a150565b6000601460009054906101000a900473ffffffffffffffffffffffffffffffffffffffff16905090565b6000600254905090565b6000612263826001600086815260200190815260200160002060000161323590919063ffffffff16565b905092915050565b6000612295826001600086815260200190815260200160002060000161324f90919063ffffffff16565b905092915050565b6000801b81565b6000601060039054906101000a900473ffffffffffffffffffffffffffffffffffffffff1673ffffffffffffffffffffffffffffffffffffffff163373ffffffffffffffffffffffffffffffffffffffff1614612336576040517f08c379a000000000000000000000000000000000000000000000000000000000815260040161232d90614c6b565b60405180910390fd5b6000600b60008573ffffffffffffffffffffffffffffffffffffffff1673ffffffffffffffffffffffffffffffffffffffff168152602001908152602001600020541415612545576006839080600181540180825580915050600190039060005260206000200160009091909190916101000a81548173ffffffffffffffffffffffffffffffffffffffff021916908373ffffffffffffffffffffffffffffffffffffffff160217905550600680549050600b60008573ffffffffffffffffffffffffffffffffffffffff1673ffffffffffffffffffffffffffffffffffffffff1681526020019081526020016000208190555081600c60008573ffffffffffffffffffffffffffffffffffffffff1673ffffffffffffffffffffffffffffffffffffffff16815260200190815260200160002060006101000a81548160ff021916908360ff16021790555060038260ff1614156124f2576007839080600181540180825580915050600190039060005260206000200160009091909190916101000a81548173ffffffffffffffffffffffffffffffffffffffff021916908373ffffffffffffffffffffffffffffffffffffffff1602179055505b6001601060026101000a81548160ff0219169083151502179055507fb25d03aaf308d7291709be1ea28b800463cf3a9a4c4a5555d7333a964c1dfebd8360405161253c91906147fa565b60405180910390a15b6001905092915050565b61255c6000801b3361226b565b61259b576040517f08c379a000000000000000000000000000000000000000000000000000000000815260040161259290614b9f565b60405180910390fd5b601260003373ffffffffffffffffffffffffffffffffffffffff1673ffffffffffffffffffffffffffffffffffffffff168152602001908152602001600020544311156127b55743601260003373ffffffffffffffffffffffffffffffffffffffff1673ffffffffffffffffffffffffffffffffffffffff168152602001908152602001600020819055506001600c60003373ffffffffffffffffffffffffffffffffffffffff1673ffffffffffffffffffffffffffffffffffffffff16815260200190815260200160002060009054906101000a900460ff1660ff1614156126c957600454600a60003373ffffffffffffffffffffffffffffffffffffffff1673ffffffffffffffffffffffffffffffffffffffff168152602001908152602001600020819055506127b4565b6002600c60003373ffffffffffffffffffffffffffffffffffffffff1673ffffffffffffffffffffffffffffffffffffffff16815260200190815260200160002060009054906101000a900460ff1660ff16141561276c57600554600a60003373ffffffffffffffffffffffffffffffffffffffff1673ffffffffffffffffffffffffffffffffffffffff168152602001908152602001600020819055506127b3565b600954600a60003373ffffffffffffffffffffffffffffffffffffffff1673ffffffffffffffffffffffffffffffffffffffff168152602001908152602001600020819055505b5b5b6000600780549050111561282957601060029054906101000a900460ff16806127e257506127e1612981565b5b15612828577fa37b1b27143f61d990cfcf145e7f5d21c4419700613094ab29654b7ac6c0872460016040516128179190614767565b60405180910390a1612827612adf565b5b5b8060ff16601060006101000a81548161ffff021916908361ffff1602179055507f391f497be38b4a119b54a7aff7abd13862ee699e717fc2e9c890b068aa80b02233601060009054906101000a900461ffff1660405161288a929190614ebf565b60405180910390a150565b60006128b56001600084815260200190815260200160002060000161327f565b9050919050565b6000600d54905090565b6128ed60016000848152602001908152602001600020600201546128e86130e4565b61226b565b61292c576040517f08c379a000000000000000000000000000000000000000000000000000000000815260040161292390614f5a565b60405180910390fd5b6129368282613180565b5050565b6000600954905090565b6000600680549050905090565b6000612979836000018373ffffffffffffffffffffffffffffffffffffffff1660001b613294565b905092915050565b60006008544314156129965760009050612adc565b6000600f54436129a6919061496e565b9050601060009054906101000a900461ffff1661ffff168114156129f657601060009054906101000a900461ffff1661ffff16600d546129e69190614fa9565b600e819055506001915050612adc565b601060009054906101000a900461ffff1661ffff16811115612ad657601060009054906101000a900461ffff1661ffff16601060009054906101000a900461ffff1661ffff1682612a47919061496e565b10612a66576000600d819055506000600e819055506001915050612adc565b80600d54612a749190614fa9565b601060009054906101000a900461ffff1661ffff1682612a94919061496e565b612a9e9190614fda565b600d81905550601060009054906101000a900461ffff1661ffff16600d54612ac69190614fa9565b600e819055506001915050612adc565b60009150505b90565b600060646002546050612af29190614fda565b612afc9190614fa9565b905060646002546014612b0f9190614fda565b612b199190614fa9565b600e5411612b4757600780549050600254612b349190614fa9565b6005612b409190614fda565b9050612c3b565b60646002546028612b589190614fda565b612b629190614fa9565b600e5411612b9057600780549050600254612b7d9190614fa9565b6004612b899190614fda565b9050612c3a565b6064600254603c612ba19190614fda565b612bab9190614fa9565b600e5411612bd957600780549050600254612bc69190614fa9565b6003612bd29190614fda565b9050612c39565b60646002546050612bea9190614fda565b612bf49190614fa9565b600e5411612c2257600780549050600254612c0f9190614fa9565b6002612c1b9190614fda565b9050612c38565b600780549050600254612c359190614fa9565b90505b5b5b5b60646002546050612c4c9190614fda565b612c569190614fa9565b811115612c7b5760646002546050612c6e9190614fda565b612c789190614fa9565b90505b612c87600d5482613304565b50565b6000612c94614276565b612c9c614276565b600080612cab8a8a8a8a613426565b9150915081612cfc576000836000019073ffffffffffffffffffffffffffffffffffffffff16908173ffffffffffffffffffffffffffffffffffffffff168152505060068394509450505050612f83565b80836000019073ffffffffffffffffffffffffffffffffffffffff16908173ffffffffffffffffffffffffffffffffffffffff1681525050612d3e8a8761345a565b866020018760400188606001896080018490528473ffffffffffffffffffffffffffffffffffffffff1673ffffffffffffffffffffffffffffffffffffffff16815250848152508481525050505050601360003373ffffffffffffffffffffffffffffffffffffffff1673ffffffffffffffffffffffffffffffffffffffff1681526020019081526020016000206000846000015173ffffffffffffffffffffffffffffffffffffffff1673ffffffffffffffffffffffffffffffffffffffff16815260200190815260200160002054836020015114612e275760028394509450505050612f83565b612e34836060015161359a565b612e475760078394509450505050612f83565b60025483604001511115612e645760008394509450505050612f83565b612e718360400151613605565b612e845760038394509450505050612f83565b3373ffffffffffffffffffffffffffffffffffffffff16836000015173ffffffffffffffffffffffffffffffffffffffff167f79f72f9dacecfa9af3cfe946364971d0ef4826ffd35451658b283d58a382c20f60405160405180910390a3601360003373ffffffffffffffffffffffffffffffffffffffff1673ffffffffffffffffffffffffffffffffffffffff1681526020019081526020016000206000846000015173ffffffffffffffffffffffffffffffffffffffff1673ffffffffffffffffffffffffffffffffffffffff1681526020019081526020016000206000815480929190612f7390615034565b9190505550600883945094505050505b9550959350505050565b6000806000612f9c3385613660565b915091507f260359eeed8459102359245337088f93b15364b134b4be9092d508e741bbdee13343868585604051612fd795949392919061507d565b60405180910390a16000821415612ff357600092505050612ffa565b6001925050505b919050565b600080823b905060008163ffffffff1611915050919050565b600060608573ffffffffffffffffffffffffffffffffffffffff16848685604051613043919061510c565b600060405180830381858888f193505050503d8060008114613081576040519150601f19603f3d011682016040523d82523d6000602084013e613086565b606091505b50809250819350505094509492505050565b600080600b60008473ffffffffffffffffffffffffffffffffffffffff1673ffffffffffffffffffffffffffffffffffffffff1681526020019081526020016000205414159050919050565b600033905090565b613114816001600085815260200190815260200160002060000161295190919063ffffffff16565b1561317c576131216130e4565b73ffffffffffffffffffffffffffffffffffffffff168173ffffffffffffffffffffffffffffffffffffffff16837f2f8788117e7eff1d82e926ec794901d17c78024a50270940304540a733656f0d60405160405180910390a45b5050565b6131a8816001600085815260200190815260200160002060000161380190919063ffffffff16565b15613210576131b56130e4565b73ffffffffffffffffffffffffffffffffffffffff168173ffffffffffffffffffffffffffffffffffffffff16837ff6391f5c32d9c69d2a47ea670b442974b53935d1edc7fd64eb21e047a839171b60405160405180910390a45b5050565b600080600083516020850186f091506000823b119050809250509250929050565b60006132448360000183613831565b60001c905092915050565b6000613277836000018373ffffffffffffffffffffffffffffffffffffffff1660001b6138a5565b905092915050565b600061328d826000016138c8565b9050919050565b60006132a083836138a5565b6132f95782600001829080600181540180825580915050600190039060005260206000200160009091909190915055826000018054905083600101600084815260200190815260200160002081905550600190506132fe565b600090505b92915050565b60005b6007805490508161ffff1610156133b15781600a600060068461ffff168154811061333557613334614cf7565b5b9060005260206000200160009054906101000a900473ffffffffffffffffffffffffffffffffffffffff1673ffffffffffffffffffffffffffffffffffffffff1673ffffffffffffffffffffffffffffffffffffffff1681526020019081526020016000208190555080806133a990615123565b915050613307565b50806009819055506000600d8190555043600f819055506000601060026101000a81548160ff0219169083151502179055507f1ecdaca0ae98a95eed765c0622982b0f7691f9a345988f8fca91c1c016ce5ee74383600e548460405161341a949392919061514e565b60405180910390a15050565b60008060008680519060200120905061344c868686846138d9909392919063ffffffff16565b925092505094509492505050565b60008060006060600061347461346f886139e3565b613a11565b9050856135195761349f8160008151811061349257613491614cf7565b5b6020026020010151613b26565b6134c3826002815181106134b6576134b5614cf7565b5b6020026020010151613b26565b6134e7836003815181106134da576134d9614cf7565b5b6020026020010151613b80565b61350b846005815181106134fe576134fd614cf7565b5b6020026020010151613ba3565b945094509450945050613591565b61353d816000815181106135305761352f614cf7565b5b6020026020010151613b26565b6135618260028151811061355457613553614cf7565b5b6020026020010151613b26565b60006135878460058151811061357a57613579614cf7565b5b6020026020010151613ba3565b9450945094509450505b92959194509250565b6000601060039054906101000a900473ffffffffffffffffffffffffffffffffffffffff1673ffffffffffffffffffffffffffffffffffffffff168273ffffffffffffffffffffffffffffffffffffffff1614156135fb5760009050613600565b600190505b919050565b6000600a60003373ffffffffffffffffffffffffffffffffffffffff1673ffffffffffffffffffffffffffffffffffffffff168152602001908152602001600020548211613656576001905061365b565b600090505b919050565b600080600a60008573ffffffffffffffffffffffffffffffffffffffff1673ffffffffffffffffffffffffffffffffffffffff16815260200190815260200160002054831115613710576000600a60008673ffffffffffffffffffffffffffffffffffffffff1673ffffffffffffffffffffffffffffffffffffffff1681526020019081526020016000208190555082600d546136fd91906149a2565b600d8190555061370b613c36565b6137b3565b82600a60008673ffffffffffffffffffffffffffffffffffffffff1673ffffffffffffffffffffffffffffffffffffffff1681526020019081526020016000205461375b919061496e565b600a60008673ffffffffffffffffffffffffffffffffffffffff1673ffffffffffffffffffffffffffffffffffffffff1681526020019081526020016000208190555082600d546137ac91906149a2565b600d819055505b600a60008573ffffffffffffffffffffffffffffffffffffffff1673ffffffffffffffffffffffffffffffffffffffff16815260200190815260200160002054600d54915091509250929050565b6000613829836000018373ffffffffffffffffffffffffffffffffffffffff1660001b613df6565b905092915050565b60008183600001805490501161387c576040517f08c379a000000000000000000000000000000000000000000000000000000000815260040161387390615205565b60405180910390fd5b82600001828154811061389257613891614cf7565b5b9060005260206000200154905092915050565b600080836001016000848152602001908152602001600020541415905092915050565b600081600001805490509050919050565b6000807f7fffffffffffffffffffffffffffffff5d576e7357a4501ddfe92f46681b20a08360001c111561391357600080915091506139da565b601b8560ff161415801561392b5750601c8560ff1614155b1561393c57600080915091506139da565b6000600187878787604051600081526020016040526040516139619493929190615234565b6020604051602081039080840390855afa158015613983573d6000803e3d6000fd5b505050602060405103519050600073ffffffffffffffffffffffffffffffffffffffff168173ffffffffffffffffffffffffffffffffffffffff1614156139d15760008092509250506139da565b60018192509250505b94509492505050565b6139eb6142d1565b600060208301905060405180604001604052808451815260200182815250915050919050565b6060613a1c82613f0e565b613a2557600080fd5b6000613a3083613f5c565b905060008167ffffffffffffffff811115613a4e57613a4d614350565b5b604051908082528060200260200182016040528015613a8757816020015b613a746142d1565b815260200190600190039081613a6c5790505b5090506000613a998560200151613fea565b8560200151613aa891906149a2565b9050600080600090505b84811015613b1957613ac3836140a9565b9150604051806040016040528083815260200184815250848281518110613aed57613aec614cf7565b5b60200260200101819052508183613b0491906149a2565b92508080613b1190615034565b915050613ab2565b5082945050505050919050565b6000808260000151118015613b4057506021826000015111155b613b4957600080fd5b600080613b5584614185565b915091506000825190506020821015613b7557816020036101000a810490505b809350505050919050565b60006015826000015114613b9357600080fd5b613b9c82613b26565b9050919050565b60606000826000015111613bb657600080fd5b600080613bc284614185565b9150915060008167ffffffffffffffff811115613be257613be1614350565b5b6040519080825280601f01601f191660200182016040528015613c145781602001600182028036833780820191505090505b5090506000816020019050613c2a8482856141cf565b81945050505050919050565b6001601160003373ffffffffffffffffffffffffffffffffffffffff1673ffffffffffffffffffffffffffffffffffffffff16815260200190815260200160002060006101000a81548160ff021916908315150217905550600033604051602401613ca191906147fa565b6040516020818303038152906040527fc4740a95000000000000000000000000000000000000000000000000000000007bffffffffffffffffffffffffffffffffffffffffffffffffffffffff19166020820180517bffffffffffffffffffffffffffffffffffffffffffffffffffffffff83818316178352505050509050600080601060039054906101000a900473ffffffffffffffffffffffffffffffffffffffff1673ffffffffffffffffffffffffffffffffffffffff1683604051613d6a919061510c565b6000604051808303816000865af19150503d8060008114613da7576040519150601f19603f3d011682016040523d82523d6000602084013e613dac565b606091505b50915091508115613df1577f29894930b6f680a84bc3015c2ee88544ea90c73f564a4dba638e3c55ebe636003343604051613de8929190614bbf565b60405180910390a15b505050565b60008083600101600084815260200190815260200160002054905060008114613f02576000600182613e28919061496e565b9050600060018660000180549050613e40919061496e565b90506000866000018281548110613e5a57613e59614cf7565b5b9060005260206000200154905080876000018481548110613e7e57613e7d614cf7565b5b9060005260206000200181905550600183613e9991906149a2565b8760010160008381526020019081526020016000208190555086600001805480613ec657613ec5614d26565b5b60019003818190600052602060002001600090559055866001016000878152602001908152602001600020600090556001945050505050613f08565b60009150505b92915050565b60008082600001511415613f255760009050613f57565b60008083602001519050805160001a915060c060ff168260ff161015613f5057600092505050613f57565b6001925050505b919050565b60008082600001511415613f735760009050613fe5565b600080613f838460200151613fea565b8460200151613f9291906149a2565b9050600084600001518560200151613faa91906149a2565b90505b80821015613fde57613fbe826140a9565b82613fc991906149a2565b91508280613fd690615034565b935050613fad565b8293505050505b919050565b600080825160001a9050608060ff1681101561400a5760009150506140a4565b60b860ff1681108061402f575060c060ff16811015801561402e575060f860ff1681105b5b1561403e5760019150506140a4565b60c060ff168110156140795760018060b86140599190615279565b60ff1682614067919061496e565b61407191906149a2565b9150506140a4565b60018060f86140889190615279565b60ff1682614096919061496e565b6140a091906149a2565b9150505b919050565b6000806000835160001a9050608060ff168110156140ca576001915061417b565b60b860ff168110156140f9576001608060ff16826140e8919061496e565b6140f291906149a2565b915061417a565b60c060ff168110156141295760b78103600185019450806020036101000a85510460018201810193505050614179565b60f860ff1681101561415857600160c060ff1682614147919061496e565b61415191906149a2565b9150614178565b60f78103600185019450806020036101000a855104600182018101935050505b5b5b5b8192505050919050565b60008060006141978460200151613fea565b905060008185602001516141ab91906149a2565b905060008286600001516141bf919061496e565b9050818194509450505050915091565b60008114156141dd57614271565b5b602060ff1681106142285782518252602060ff16836141fd91906149a2565b9250602060ff168261420f91906149a2565b9150602060ff1681614221919061496e565b90506141de565b6000811115614270576000600182602060ff16614245919061496e565b61010061425291906153e0565b61425c919061496e565b905080198451168184511681811785525050505b5b505050565b6040518060a00160405280600073ffffffffffffffffffffffffffffffffffffffff1681526020016000815260200160008152602001600073ffffffffffffffffffffffffffffffffffffffff168152602001606081525090565b604051806040016040528060008152602001600081525090565b6000604051905090565b600080fd5b600080fd5b6000819050919050565b614312816142ff565b811461431d57600080fd5b50565b60008135905061432f81614309565b92915050565b600080fd5b600080fd5b6000601f19601f8301169050919050565b7f4e487b7100000000000000000000000000000000000000000000000000000000600052604160045260246000fd5b6143888261433f565b810181811067ffffffffffffffff821117156143a7576143a6614350565b5b80604052505050565b60006143ba6142eb565b90506143c6828261437f565b919050565b600067ffffffffffffffff8211156143e6576143e5614350565b5b6143ef8261433f565b9050602081019050919050565b82818337600083830152505050565b600061441e614419846143cb565b6143b0565b90508281526020810184848401111561443a5761443961433a565b5b6144458482856143fc565b509392505050565b600082601f83011261446257614461614335565b5b813561447284826020860161440b565b91505092915050565b600060ff82169050919050565b6144918161447b565b811461449c57600080fd5b50565b6000813590506144ae81614488565b92915050565b6000819050919050565b6144c7816144b4565b81146144d257600080fd5b50565b6000813590506144e4816144be565b92915050565b600080600080600060a08688031215614506576145056142f5565b5b600061451488828901614320565b955050602086013567ffffffffffffffff811115614535576145346142fa565b5b6145418882890161444d565b94505060406145528882890161449f565b9350506060614563888289016144d5565b9250506080614574888289016144d5565b9150509295509295909350565b7f4e487b7100000000000000000000000000000000000000000000000000000000600052602160045260246000fd5b600981106145c1576145c0614581565b5b50565b60008190506145d2826145b0565b919050565b60006145e2826145c4565b9050919050565b6145f2816145d7565b82525050565b600060208201905061460d60008301846145e9565b92915050565b61461c816142ff565b82525050565b60006020820190506146376000830184614613565b92915050565b600060208284031215614653576146526142f5565b5b600061466184828501614320565b91505092915050565b6000602082840312156146805761467f6142f5565b5b600061468e848285016144d5565b91505092915050565b6146a0816144b4565b82525050565b60006020820190506146bb6000830184614697565b92915050565b600073ffffffffffffffffffffffffffffffffffffffff82169050919050565b60006146ec826146c1565b9050919050565b6146fc816146e1565b811461470757600080fd5b50565b600081359050614719816146f3565b92915050565b600060208284031215614735576147346142f5565b5b60006147438482850161470a565b91505092915050565b60008115159050919050565b6147618161474c565b82525050565b600060208201905061477c6000830184614758565b92915050565b60008060408385031215614799576147986142f5565b5b60006147a7858286016144d5565b92505060206147b88582860161470a565b9150509250929050565b6147cb816146e1565b82525050565b60006040820190506147e660008301856145e9565b6147f360208301846147c2565b9392505050565b600060208201905061480f60008301846147c2565b92915050565b6000806040838503121561482c5761482b6142f5565b5b600061483a858286016144d5565b925050602061484b85828601614320565b9150509250929050565b6000806040838503121561486c5761486b6142f5565b5b600061487a8582860161470a565b925050602061488b8582860161449f565b9150509250929050565b6000602082840312156148ab576148aa6142f5565b5b60006148b98482850161449f565b91505092915050565b600082825260208201905092915050565b7f5265656e7472616e637947756172643a207265656e7472616e742063616c6c00600082015250565b6000614909601f836148c2565b9150614914826148d3565b602082019050919050565b60006020820190508181036000830152614938816148fc565b9050919050565b7f4e487b7100000000000000000000000000000000000000000000000000000000600052601160045260246000fd5b6000614979826142ff565b9150614984836142ff565b9250828210156149975761499661493f565b5b828203905092915050565b60006149ad826142ff565b91506149b8836142ff565b9250827fffffffffffffffffffffffffffffffffffffffffffffffffffffffffffffffff038211156149ed576149ec61493f565b5b828201905092915050565b6000606082019050614a0d60008301866147c2565b614a1a60208301856147c2565b614a2760408301846145e9565b949350505050565b600081519050919050565b600082825260208201905092915050565b60005b83811015614a69578082015181840152602081019050614a4e565b83811115614a78576000848401525b50505050565b6000614a8982614a2f565b614a938185614a3a565b9350614aa3818560208601614a4b565b614aac8161433f565b840191505092915050565b6000604082019050614acc6000830185614758565b8181036020830152614ade8184614a7e565b90509392505050565b7f4e6f6465206973206e6f74207265676973746572656400000000000000000000600082015250565b6000614b1d6016836148c2565b9150614b2882614ae7565b602082019050919050565b60006020820190508181036000830152614b4c81614b10565b9050919050565b7f43616c6c6572206973206e6f742041646d696e00000000000000000000000000600082015250565b6000614b896013836148c2565b9150614b9482614b53565b602082019050919050565b60006020820190508181036000830152614bb881614b7c565b9050919050565b6000604082019050614bd460008301856147c2565b614be16020830184614613565b9392505050565b6000606082019050614bfd6000830186614613565b614c0a60208301856147c2565b614c176040830184614613565b949350505050565b7f43616c6c6572206973206e6f74204163636f756e7420436f6e74726163740000600082015250565b6000614c55601e836148c2565b9150614c6082614c1f565b602082019050919050565b60006020820190508181036000830152614c8481614c48565b9050919050565b7f4e6f646520646f65736e27742065786973740000000000000000000000000000600082015250565b6000614cc16012836148c2565b9150614ccc82614c8b565b602082019050919050565b60006020820190508181036000830152614cf081614cb4565b9050919050565b7f4e487b7100000000000000000000000000000000000000000000000000000000600052603260045260246000fd5b7f4e487b7100000000000000000000000000000000000000000000000000000000600052603160045260246000fd5b7f416363657373436f6e74726f6c3a2073656e646572206d75737420626520616e60008201527f2061646d696e20746f206772616e740000000000000000000000000000000000602082015250565b6000614db1602f836148c2565b9150614dbc82614d55565b604082019050919050565b60006020820190508181036000830152614de081614da4565b9050919050565b7f416363657373436f6e74726f6c3a2063616e206f6e6c792072656e6f756e636560008201527f20726f6c657320666f722073656c660000000000000000000000000000000000602082015250565b6000614e43602f836148c2565b9150614e4e82614de7565b604082019050919050565b60006020820190508181036000830152614e7281614e36565b9050919050565b6000604082019050614e8e60008301856147c2565b614e9b60208301846147c2565b9392505050565b600061ffff82169050919050565b614eb981614ea2565b82525050565b6000604082019050614ed460008301856147c2565b614ee16020830184614eb0565b9392505050565b7f416363657373436f6e74726f6c3a2073656e646572206d75737420626520616e60008201527f2061646d696e20746f207265766f6b6500000000000000000000000000000000602082015250565b6000614f446030836148c2565b9150614f4f82614ee8565b604082019050919050565b60006020820190508181036000830152614f7381614f37565b9050919050565b7f4e487b7100000000000000000000000000000000000000000000000000000000600052601260045260246000fd5b6000614fb4826142ff565b9150614fbf836142ff565b925082614fcf57614fce614f7a565b5b828204905092915050565b6000614fe5826142ff565b9150614ff0836142ff565b9250817fffffffffffffffffffffffffffffffffffffffffffffffffffffffffffffffff04831182151516156150295761502861493f565b5b828202905092915050565b600061503f826142ff565b91507fffffffffffffffffffffffffffffffffffffffffffffffffffffffffffffffff8214156150725761507161493f565b5b600182019050919050565b600060a08201905061509260008301886147c2565b61509f6020830187614613565b6150ac6040830186614613565b6150b96060830185614613565b6150c66080830184614613565b9695505050505050565b600081905092915050565b60006150e682614a2f565b6150f081856150d0565b9350615100818560208601614a4b565b80840191505092915050565b600061511882846150db565b915081905092915050565b600061512e82614ea2565b915061ffff8214156151435761514261493f565b5b600182019050919050565b60006080820190506151636000830187614613565b6151706020830186614613565b61517d6040830185614613565b61518a6060830184614613565b95945050505050565b7f456e756d657261626c655365743a20696e646578206f7574206f6620626f756e60008201527f6473000000000000000000000000000000000000000000000000000000000000602082015250565b60006151ef6022836148c2565b91506151fa82615193565b604082019050919050565b6000602082019050818103600083015261521e816151e2565b9050919050565b61522e8161447b565b82525050565b60006080820190506152496000830187614697565b6152566020830186615225565b6152636040830185614697565b6152706060830184614697565b95945050505050565b60006152848261447b565b915061528f8361447b565b9250828210156152a2576152a161493f565b5b828203905092915050565b60008160011c9050919050565b6000808291508390505b6001851115615304578086048111156152e0576152df61493f565b5b60018516156152ef5780820291505b80810290506152fd856152ad565b94506152c4565b94509492505050565b60008261531d57600190506153d9565b8161532b57600090506153d9565b8160018114615341576002811461534b5761537a565b60019150506153d9565b60ff84111561535d5761535c61493f565b5b8360020a9150848211156153745761537361493f565b5b506153d9565b5060208310610133831016604e8410600b84101617156153af5782820a9050838111156153aa576153a961493f565b5b6153d9565b6153bc84848460016152ba565b925090508184048111156153d3576153d261493f565b5b81810290505b9392505050565b60006153eb826142ff565b91506153f6836142ff565b92506154237fffffffffffffffffffffffffffffffffffffffffffffffffffffffffffffffff848461530d565b90509291505056fea2646970667358221220bc2e49821b4c22c77cbb0cb1066d1bfd7b152cbf017b1d37b87fcca1cc0d392064736f6c634300080b0033",
  "immutableReferences": {},
  "source": "// SPDX-License-Identifier: UNLICENSED\n\npragma solidity >=0.8.0 <0.9.0;\n\nimport \"./IRelayHub.sol\";\nimport \"./lib/ECDSA.sol\";\nimport \"./GasLimit.sol\";\nimport \"solidity-rlp/contracts/RLPReader.sol\";\nimport \"./security/ReentrancyGuard.sol\";\n\ncontract TxRelay is ReentrancyGuard,GasLimit,IRelayHub{\n\n    using ECDSA for bytes32;\n    using RLPReader for RLPReader.RLPItem;\n    using RLPReader for RLPReader.Iterator;\n    using RLPReader for bytes;\n\n    // Note: This is a local nonce.\n    // Different from the nonce defined w/in protocol.\n    //    writerNode => userAddress => nonce\n    mapping(address => mapping (address => uint)) nonces;\n\n    address msgSender;\n\n    constructor(uint16 _blocksFrequency, address _accountIngress) GasLimit(_blocksFrequency,_accountIngress){\n        _setupRole(DEFAULT_ADMIN_ROLE, msg.sender);\n    }\n\n    function relayMetaTx(\n        uint256 gasLimit,\n        bytes memory signingData, ////0xf8..RLP final user + nodeAddress + expiration\n        uint8 v,\n        bytes32 r,\n        bytes32 s\n    ) external nonReentrant evaluateCurrentBlock override returns (ErrorCode success){\n        (ErrorCode errorCode, TransactionData memory data) = _verifyTransaction(signingData,v,r,s,false);\n\n        if (errorCode!=ErrorCode.OK){\n            if (!_increaseGasUsed(gasLimit - gasleft() + 6494)){  //6494 cost to set gasUsed\n                return ErrorCode.NotEnoughGas;    \n            }\n            emit BadTransactionSent(msg.sender, data.from, errorCode);\n            return errorCode;\n        }else{\n            if (_isContract(data.to)){\n                msgSender = data.from;\n                if (gasleft()>(data.gasLimit + 35000)){  //could be done in transaction permissioning, but decode payload to get gaslimit of user is expensive and we already have here\n                    (bool executed, bytes memory output) = _executeCall(data.to,0,data.gasLimit+600,data.encodedFunction); //600 because 64 bytes are added as parameters (nodeAddress, expiration)\n\n                    emit TransactionRelayed(msg.sender, data.from, data.to, executed, output);\n                }else{\n                    emit BadTransactionSent(msg.sender, data.from, ErrorCode.NotEnoughGas);\n                    if (!_increaseGasUsed(gasLimit - gasleft() + 6494)){    //6494 cost to set gasUsed\n                        return ErrorCode.NotEnoughGas;    \n                    }\n                    return ErrorCode.NotEnoughGas;\n                }\n            }else{\n                emit BadTransactionSent(msg.sender, data.from, ErrorCode.IsNotContract);\n            }\n            if (!_increaseGasUsed(gasLimit - gasleft() + 6494)){   //6494 cost to set gasUsed\n                return ErrorCode.NotEnoughGas;\n            }\n            return ErrorCode.OK;\n        }\n    }\n\n    function deployMetaTx(\n        uint256 gasLimit,\n        bytes memory signingData,\n        uint8 v,\n        bytes32 r,\n        bytes32 s\n    ) external nonReentrant override evaluateCurrentBlock returns (ErrorCode success, address deployedAddress){\n        (ErrorCode errorCode, TransactionData memory data) = _verifyTransaction(signingData,v,r,s,true);\n\n        if (errorCode!=ErrorCode.OK){\n            emit BadTransactionSent(msg.sender, data.from, errorCode);\n            if (!_increaseGasUsed(gasLimit - gasleft() + 6494)){  //6494 cost to set gasUsed\n                return (ErrorCode.NotEnoughGas,address(0));   \n            }\n            return (errorCode,address(0));\n        }else{\n            if (data.encodedFunction.length > 0){\n                msgSender = data.from;\n                if (gasleft()>(data.gasLimit + 70000)){ \n                    (uint8 isContractDeployed, address createdContract) = _doCreate(0,data.encodedFunction);\n                    deployedAddress = createdContract;\n                    if (isContractDeployed>0){\n                        emit ContractDeployed(msg.sender, data.from, deployedAddress);\n                    }\n                } else{\n                    emit BadTransactionSent(msg.sender, data.from, ErrorCode.NotEnoughGas);\n                    if (!_increaseGasUsed(gasLimit - gasleft() + 6494)){   //6494 cost to set gasUsed\n                        return (ErrorCode.NotEnoughGas, address(0));\n                    }\n                    return (ErrorCode.NotEnoughGas,address(0));\n                }\n            }else{\n                emit BadTransactionSent(msg.sender, data.from, ErrorCode.EmptyCode);\n            }\n            if (!_increaseGasUsed(gasLimit - gasleft() + 6494)){   //6494 cost to set gasUsed\n                return (ErrorCode.NotEnoughGas,address(0));\n            }\n            \n            return (ErrorCode.OK,deployedAddress);\n        }\n    }\n\n    function _verifyTransaction(\n        bytes memory signingData,\n        uint8 v,\n        bytes32 r,\n        bytes32 s,\n        bool isContractDeploy) private returns (ErrorCode, TransactionData memory){    \n        TransactionData memory data;\n        \n        (bool success, address signer) = _getOriginalSender(signingData,v,r,s);\n\n        if (!success){\n            data.from = address(0);\n            return (ErrorCode.InvalidSignature,data);\n        }\n        data.from = signer;\n        (data.nonce,data.gasLimit, data.to, data.encodedFunction) = _getParametersTx(signingData,isContractDeploy);\n        \n  //      emit Parameters(data.nonce, data.gasLimit, data.to, data.encodedFunction);\n        if (data.nonce != nonces[msg.sender][data.from]){\n            return (ErrorCode.BadNonce,data);\n        }\n\n        if (!_destinationPermitted(data.to)){\n            return (ErrorCode.InvalidDestination,data);\n        }\n\n        if (data.gasLimit > maxGasBlockLimit){\n            return (ErrorCode.MaxBlockGasLimit,data);\n        }\n\n        if(!_hasEnoughGas(data.gasLimit)){\n            return (ErrorCode.NotEnoughGas, data);\n        }\n\n        emit Relayed(data.from,msg.sender);\n        nonces[msg.sender][data.from]++; //if we are going to do tx, update nonce\n        \n        return (ErrorCode.OK, data);\n    }\n\n    /**\n     * @param _value amount ether to send\n     * @param _code contract code\n     */\n    function _doCreate(uint _value, bytes memory _code) internal returns (uint8 success, address createdContract){\n        uint8 contractDeployed;\n        // solium-disable-next-line security/no-inline-assembly\n        assembly {\n            createdContract := create(_value, add(_code, 0x20), mload(_code))\n            contractDeployed := gt(extcodesize(createdContract),0)\n        }\n        return (contractDeployed, createdContract);\n    }\n\n    /**\n     * @param _untrustedRecipient contract destination\n     * @param _value amount ether to send\n     * @param _data transaction to send\n     */\n    function _executeCall(address _untrustedRecipient, uint256 _value, uint256 _gasLimit, bytes memory _data) private returns (bool success, bytes memory output){\n        (success, output) = _untrustedRecipient.call{gas:_gasLimit, value:_value}(_data);\n    }\n\n    function getNonce(address from) external override view returns (uint256){\n         return nonces[msg.sender][from];\n    }\n\n    function getMsgSender() external view returns (address){\n        return msgSender;\n    }\n\n    function _isContract(address _addr) private view returns (bool isContract){\n        uint32 size;\n        assembly {\n            size := extcodesize(_addr)\n        }\n        return (size > 0);\n    }\n\n    function increaseGasUsed(uint256 gasUsed) nonReentrant evaluateCurrentBlock onlyAccountPermissioned external returns (bool){\n        return _increaseGasUsed(gasUsed);\n    }\n\n    function _increaseGasUsed(uint256 gasUsed) private returns (bool) {\n        (uint256 newGasLimit,uint256 gasUsedLastBlocks) = _addGasUsed(msg.sender, gasUsed);\n        emit GasUsedByTransaction(msg.sender, block.number, gasUsed, newGasLimit, gasUsedLastBlocks);\n        if (newGasLimit == 0){\n            return false;\n        }\n        return true;\n    }\n\n    function _getOriginalSender(bytes memory signingData, uint8 v, bytes32 r, bytes32 s)private pure returns(bool, address){\n        bytes32 digest = keccak256(signingData);\n        return digest.recover(v,r,s);\n    }\n\n    function _destinationPermitted(address _to)private view returns(bool){\n        if (_to == trustedAccountIngress){\n            return false;\n        }\n        return true;\n    }\n\n    function _getParametersTx(bytes memory signingData, bool isDeployContract) private pure returns (uint256, uint256, address, bytes memory){  \n        RLPReader.RLPItem[] memory ls = signingData.toRlpItem().toList();\n        if (!isDeployContract){\n            return (ls[0].toUint(),ls[2].toUint(),ls[3].toAddress(),ls[5].toBytes());\n        }else{\n            return (ls[0].toUint(),ls[2].toUint(),address(0),ls[5].toBytes());\n        }\n    }\n\n    event Relayed(address indexed sender, address indexed from);\n    event GasUsedByTransaction(address node, uint blockNumber, uint gasUsed, uint gasLimit, uint gasUsedLastBlocks);\n    event ContractDeployed(address indexed relay, address indexed from, address contractDeployed);\n    event BadTransactionSent(address node, address originalSender, ErrorCode errorCode);\n    //TODO REMOVE\n//    event Parameters(uint256 nonce, uint256 gasLimit, address to, bytes decodedFunction);\n//    event GasSigner(uint256 gasSig);\n//    event GasPara(uint256 gasPar);\n//    event GasTotal(uint256 gasTotal);\n}\n",
  "sourcePath": "/Users/ccamaleon5/RelayHub/contracts/TxRelay.sol",
  "compiler": {
    "name": "solc",
    "version": "0.8.11+commit.d7f03943.Emscripten.clang"
  },
  "schemaVersion": "3.4.4",
  "updatedAt": "2022-06-17T21:46:04.933Z",
  "networkType": "ethereum",
  "devdoc": {
    "kind": "dev",
    "methods": {
      "deployMetaTx(uint256,bytes,uint8,bytes32,bytes32)": {
        "details": "Relays a protected transaction to deploy a new contract. Parameters:  - `signingData`: client's RLP transaction + nodeAddress + exration, without signature  - `v`: client's signature transaction v parameter  - `r`: client's signature transaction r parameter  - `s`: client's signature transaction s parameter"
      },
      "getNonce(address)": {
        "details": "Returns an account's nonce in `RelayHub`."
      },
      "getRoleAdmin(bytes32)": {
        "details": "Returns the admin role that controls `role`. See {grantRole} and {revokeRole}. To change a role's admin, use {_setRoleAdmin}."
      },
      "getRoleMember(bytes32,uint256)": {
        "details": "Returns one of the accounts that have `role`. `index` must be a value between 0 and {getRoleMemberCount}, non-inclusive. Role bearers are not sorted in any particular way, and their ordering may change at any point. WARNING: When using {getRoleMember} and {getRoleMemberCount}, make sure you perform all queries on the same block. See the following https://forum.openzeppelin.com/t/iterating-over-elements-on-enumerableset-in-openzeppelin-contracts/2296[forum post] for more information."
      },
      "getRoleMemberCount(bytes32)": {
        "details": "Returns the number of accounts that have `role`. Can be used together with {getRoleMember} to enumerate all bearers of a role."
      },
      "grantRole(bytes32,address)": {
        "details": "Grants `role` to `account`. If `account` had not been already granted `role`, emits a {RoleGranted} event. Requirements: - the caller must have ``role``'s admin role."
      },
      "hasRole(bytes32,address)": {
        "details": "Returns `true` if `account` has been granted `role`."
      },
      "relayMetaTx(uint256,bytes,uint8,bytes32,bytes32)": {
        "details": "Relays a protected transaction. Parameters:  - `signingData`: client's RLP transaction + nodeAddress + exration, without signature  - `v`: client's signature transaction v parameter  - `r`: client's signature transaction r parameter  - `s`: client's signature transaction s parameter"
      },
      "renounceRole(bytes32,address)": {
        "details": "Revokes `role` from the calling account. Roles are often managed via {grantRole} and {revokeRole}: this function's purpose is to provide a mechanism for accounts to lose their privileges if they are compromised (such as when a trusted device is misplaced). If the calling account had been granted `role`, emits a {RoleRevoked} event. Requirements: - the caller must be `account`."
      },
      "revokeRole(bytes32,address)": {
        "details": "Revokes `role` from `account`. If `account` had been granted `role`, emits a {RoleRevoked} event. Requirements: - the caller must have ``role``'s admin role."
      }
    },
    "version": 1
  },
  "userdoc": {
    "kind": "user",
    "methods": {},
    "version": 1
  }
}